:020000040800F2
:1000000060060020750100087D0100087F010008DE
:10001000810100088301000885010008000000003C
:100020000000000000000000000000008701000840
:1000300089010008000000008B0100088D01000804
:100040008F0100088F0100088F0100088F01000850
:100050008F0100088F0100088F0100088F01000840
:100060008F0100088F0100088F0100088F01000830
:100070008F0100088F0100088F0100088F01000820
:100080008F0100088F0100088F0100088F01000810
:100090008F0100088F0100088F0100088F01000800
:1000A0008F0100088F0100088F0100088F010008F0
:1000B0008F0100088F0100088F0100088F010008E0
:1000C0008F0100088F0100088F0100088F010008D0
:1000D0008F0100088F0100088F0100088F010008C0
:1000E0008F0100088F0100088F01000800F002F85E
:1000F00000F030F80AA090E8000C82448344AAF192
:100100000107DA4501D100F025F8AFF2090EBAE88F
:100110000F0013F0010F18BFFB1A43F0010318473B
:10012000780800008808000000230024002500262D
:10013000103A28BF78C1FBD8520728BF30C148BF4A
:100140000B6070471FB59DE8030000F0A9F81FBDC4
:1001500010B510BD00F000F91146FFF7F3FF00F0F5
:100160006DFB00F01EF903B4FFF7F2FF03BC00F0D3
:100170004FF900000948804709480047FEE7FEE7BD
:10018000FEE7FEE7FEE7FEE7FEE7FEE7FEE7FEE747
:1001900004480549054A064B70470000510700080E
:1001A000ED000008600000206006002060020020D2
:1001B0006002002070B5064600F056F8056806F1AA
:1001C0000B0020F00704B4429CBF002070BD2B46FA
:1001D0006A68BAB11068A04210D304F108018842DD
:1001E0003CBF5068586007D35168101941601168CE
:1001F000091B016058601460101D70BD13465268E1
:10020000002AE7D12146284600F036F80028DED142
:1002100070BD70B50446051F00F026F80068002C7C
:1002200014BF446870BD002C18BFAC423CBF2046D0
:100230006468F8D301680A18AA4218BF456003D160
:100240002A6805461144016028684119A1421CBF73
:100250006C6070BD6168696021680844286070BD89
:100260007047704770470000004870470800002042
:10027000704770477047704738B504460A460020FB
:100280006946AFF30080002808BF38BD02460099D8
:10029000204600F03FF8012038BD012000F054B89E
:1002A000F8B5AFF30080054600200C46102000BFD3
:1002B0000646A819A0420DD9324669460020AFF380
:1002C0000080070008BF00F03FF80098A04218BF68
:1002D0000546C419FFF7C8FF05600746F01D20F06A
:1002E00007004619284600F00AF8B44208BFF8BDD6
:1002F000A21B31463868BDE8F84000F00BB8002179
:100300000160C0E901107047102070470048704735
:1003100000000020034640688C46002818BF884231
:100320003CBF03464068F8D318681844884207D099
:100330000CF1030020F00700001D411A521A01467B
:10034000081D0A60FFF765BF10B500F039F8BDE879
:10035000104000F02FB870477546FFF7D7FFAE4644
:1003600005006946534620F00700854618B020B5C1
:10037000FFF70EFFBDE820404FF000064FF00007EA
:100380004FF000084FF0000B21F00701AC46ACE83D
:10039000C009ACE8C009ACE8C009ACE8C0098D46AA
:1003A000704710B50446AFF300802046BDE810400A
:1003B000FFF7D9BE002801D000F02AB8704700002E
:1003C00010B5012805D0002103A000F027F8012076
:1003D00010BD09A1F8E7000053494752544D454D5F
:1003E0003A204F7574206F662068656170206D65D6
:1003F0006D6F7279000000003A2048656170206DD1
:10040000656D6F727920636F7272757074656400C8
:1004100001491820ABBEFEE72600020070B5054674
:100420000C460A2000E06D1C00F011F835B1287868
:100430000028F8D102E0641C00F009F814B120781B
:100440000028F8D1BDE870400A20AFF3008008B55D
:1004500069468DF800000320ABBE08BD2DE9F041D0
:1004600005460E46002400F07DFA00F0F9F9074633
:1004700000F09EF9804600F04DFA7B2F04D1402118
:10048000214800F0DDF80EE040211F4800F0DAF8C6
:1004900000BF80211C4800F0CAF80028F9D000F005
:1004A00023FABDE8F08100BF8021174800F0BFF8B3
:1004B0000028F9D000F018FAB8F1000F1FD11AE0A7
:1004C00000BF00F0EFF9285500F024FA285D20B1B4
:1004D00040210D4800F0B4F804E040210A4800F043
:1004E000B1F8EEE700BF8021074800F0A0F800282F
:1004F000F9D000F0F9F9B442E2DB601CC4B200F0BC
:100500001FFA00BFCDE70000000C0140002100E011
:10051000491C8142FCDB70472DE9F0410246002571
:100520000026002000230024002791F803C00CF0CF
:100530000F0591F803C00CF0100CBCF1000F03D0B4
:1005400091F802C04CEA050591F800C0BCF1000F1B
:1005500031D0146800202BE04FF0010C0CFA00F3AE
:10056000B1F800C00CEA03069E4220D183004FF090
:100570000F0C0CFA03F7BC4305FA03FC4CEA040425
:1005800091F803C0BCF1280F06D14FF0010C0CFA12
:1005900000FCC2F814C00AE091F803C0BCF1480F97
:1005A00005D14FF0010C0CFA00FCC2F810C0401C41
:1005B0000828D1D31460B1F800C0BCF1FF0F34DDBE
:1005C000546800202EE000F1080C4FF0010808FAF2
:1005D0000CF3B1F800C00CEA03069E4221D183005F
:1005E0004FF00F0C0CFA03F7BC4305FA03FC4CEA7E
:1005F000040491F803C0BCF1280F05D100F1080CE8
:1006000008FA0CF8C2F8148091F803C0BCF1480F46
:1006100007D100F1080C4FF0010808FA0CF8C2F8F5
:100620001080401C0828CED35460BDE8F0810246FB
:10063000002093680B400BB1012000E000207047C0
:10064000416170470161704729B1064A92690243CE
:10065000044B9A6104E0034A92698243014B9A6118
:10066000704700000010024010B500F001F810BD06
:100670000CB50020019000903348006840F48030B1
:100680003149086000BF3048006800F40030009035
:100690000198401C0190009818B90198B0F5A06F1E
:1006A000F1D12948006800F4003010B10120009019
:1006B00001E0002000900098012843D12348006801
:1006C00040F01000214908600846006820F007004B
:1006D00008600846006840F0020008601A48406858
:1006E000194948600846406848600846406840F438
:1006F000806048600846406820F47C1048600846E6
:10070000406840F4E81048600846006840F0807097
:10071000086000BF0C48006800F000700028F9D0A5
:100720000948406820F003000749486008464068CF
:1007300040F00200486000BF0348406800F00C0031
:100740000828F9D10CBD0000001002400020024032
:1007500010B51348006840F00100114908600846D0
:100760004068104908400E494860084600680E4934
:1007700008400B4908600846006820F480200860A3
:100780000846406820F4FE0048604FF41F0088606F
:10079000FFF76AFF4FF000600449086010BD0000D9
:1007A000001002400000FFF8FFFFF6FE08ED00E039
:1007B00010B540210148FFF73AFF10BD000C014081
:1007C00010B54FF400510748FFF73CFFC820FFF772
:1007D0009DFE4FF400510348FFF732FFC820FFF79A
:1007E00095FE10BD0010014008B501210820FFF75B
:1007F0002BFF01211020FFF727FFC020ADF80000DC
:1008000048208DF8030002208DF80200694609484F
:10081000FFF782FE4FF40050ADF8000010208DF875
:10082000030002208DF8020069460348FFF774FEBA
:1008300008BD0000000C01400010014010B502206E
:10084000FFF7B8FC0446FFF7CFFF02212046FFF771
:1008500005FEFFF7B5FF2046FFF7DBFC002010BDCB
:1008600070B5002418E000BF80210D48FFF7DFFEBF
:100870000028F9D040210A48FFF7D9FE012802D10B
:10088000A0402843C5B200BF80210548FFF7CFFE36
:100890000128F9D0601CC4B2072CE4DB284670BDE7
:1008A000000C014070B5002418E000BF80210D4805
:1008B000FFF7BDFE0028F9D040210A48FFF7B7FE38
:1008C000012802D1A0402843C5B200BF40210548FD
:1008D000FFF7ADFE0128F9D0601CC4B2082CE4DBA0
:1008E000284670BD000C01400948006820F0706087
:1008F000074908600846006840F000700860044836
:100900001030006840F04000014910310860704725
:10091000000C01400948006820F070600749086039
:100920000846006840F08070086004481030006895
:1009300040F040000149103108607047000C014050
:1009400010B500BF80210648FFF771FE0028F9D0DE
:1009500000BF40210248FFF76AFE0028F9D010BD11
:10096000000C014010B50CE040210A48FFF75FFE83
:1009700030B900BF80210748FFF759FE0128F9D0A0
:1009800005E080210348FFF752FE0028ECD000BFAD
:1009900010BD0000000C0140A80900080000002064
:0809A0006006000028010008B8
:04000005080000ED02
:00000001FF
